:100000000C9462000C948A000C948A000C948A0070
:100010000C948A000C948A000C948A000C948A0038
:100020000C948A000C948A000C948A000C9442056B
:100030000C948A000C948A000C948A000C948A0018
:100040000C94F8040C948A000C94C6040C94A0043C
:100050000C948A000C948A000C948A000C948A00F8
:100060000C948A000C948A000000000023002600F3
:10007000290000000000240027002A0000000000E2
:10008000250028002B0004040404040404040202D4
:100090000202020203030303030301020408102007
:1000A0004080010204081020010204081020000012
:1000B0000008000201000003040700000000000027
:1000C0000000430611241FBECFEFD8E0DEBFCDBF36
:1000D00011E0A0E0B1E0E4EFF3E102C005900D9281
:1000E000A036B107D9F722E0A0E6B1E001C01D9229
:1000F000A934B207E1F710E0C2E6D0E004C02197CE
:10010000FE010E94F209C136D107C9F70E94CD064F
:100110000C94F8090C9400008F929F92AF92BF92BA
:10012000FF920F931F93CF93DF93F0902E022BE05B
:100130002F1508F44CC02091300208E512E0021B94
:10014000110927FD1395000F111F000F111F20919A
:100150002F02C8E8D0E0C21BD10927FDD395CC0FF0
:10016000DD1FCC0FDD1F4E010D2E000CAA08BB08B1
:100170009801012E000C440B550B281939094A0926
:100180005B09DC010E947C0824EB30E040E050E099
:100190000E945208820E931EA41EB51E8C169D0648
:1001A0002CF0E801801691060CF4E4012297CC0FA4
:1001B000DD1F2FB7F8948F2D90E0FC01EE0FFF1F8D
:1001C000E80FF91FE75FFD4FD283C1832FBFDF9197
:1001D000CF911F910F91FF90BF90AF909F908F9004
:1001E0000895AF92BF92CF92DF92EF92FF920F935A
:1001F0001F93CF93DF936C017B018B01040F151FBD
:10020000EB015E01AE18BF08C017D10759F0699124
:10021000D601ED91FC910190F081E02DC601099588
:10022000892B79F7C501DF91CF911F910F91FF9035
:10023000EF90DF90CF90BF90AF900895FC01538D69
:10024000448D252F30E0842F90E0821B930B5417B0
:1002500010F0CF96089501970895FC01918D828D3D
:10026000981761F0A28DAE0FBF2FB11D5D968C91D6
:10027000928D9F5F9F73928F90E008958FEF9FEF15
:100280000895FC01918D828D981731F0828DE80FD1
:10029000F11D858D90E008958FEF9FEF0895FC018B
:1002A000918D228D892F90E0805C9F4F821B910958
:1002B0008F73992708958CE691E00E944F0121E009
:1002C000892B09F420E0822F089580E090E0892BAB
:1002D00029F00E945B0181110C9400000895FC013B
:1002E000A48DA80FB92FB11DA35ABF4F2C91848D97
:1002F00090E001968F739927848FA689B7892C93F4
:10030000A089B1898C91837080648C93938D848D46
:10031000981306C00288F389E02D80818F7D808349
:100320000895EF92FF920F931F93CF93DF93EC0109
:1003300081E0888F9B8D8C8D98131AC0E889F9898C
:10034000808185FF15C09FB7F894EE89FF8960838F
:10035000E889F98980818370806480839FBF81E010
:1003600090E0DF91CF911F910F91FF90EF90089552
:10037000F62E0B8D10E00F5F1F4F0F731127E02E2D
:100380008C8D8E110CC00FB607FCFACFE889F98965
:10039000808185FFF5CFCE010E946F01F1CFEB8DFB
:1003A000EC0FFD2FF11DE35AFF4FF0829FB7F89439
:1003B0000B8FEA89FB8980818062CFCFCF93DF9357
:1003C000EC01888D8823B9F0AA89BB89E889F9896D
:1003D0008C9185FD03C0808186FD0DC00FB607FCA2
:1003E000F7CF8C9185FFF2CF808185FFEDCFCE01D5
:1003F0000E946F01E9CFDF91CF91089590E0FC0159
:10040000E255FF4F2491FC01E656FF4F3491FC0169
:10041000EA57FF4FE491EE23C9F0222339F023304D
:1004200001F1A8F4213019F1223029F1F0E0EE0FAA
:10043000FF1FE458FF4FA591B4918FB7F894EC914A
:10044000611126C030953E233C938FBF089527301D
:10045000A9F02830C9F0243049F7809180008F7DC1
:1004600003C0809180008F7780938000DFCF84B5B8
:100470008F7784BDDBCF84B58F7DFBCF8091B000BB
:100480008F778093B000D2CF8091B0008F7DF9CF6D
:100490003E2BDACFCF93DF9390E0FC01E656FF4F7F
:1004A00024918A579F4FFC0184918823D1F090E0DA
:1004B000880F991FFC01EE58FF4FA591B491FC01E4
:1004C000E458FF4FC591D49161110EC09FB7F894C5
:1004D0008C91E22FE0958E238C932881E223E88390
:1004E0009FBFDF91CF9108958FB7F894EC91E22BE5
:1004F000EC938FBFF6CF089590E080E00895FC0163
:1005000001900020E9F73197AF01481B590BBC015E
:1005100081E392E00C94F100CF93DF93EC0160E073
:100520008E810E94FE0161E08E810E94FE0160E0EA
:100530008E810E94FE018BE891E00197F1F7DF9137
:10054000CF910895CF92DF92EF92FF920F931F9376
:10055000CF93DF936C017C0187E0E80EF11CD0E0C3
:10056000C0E0062F10E0B8010C2E02C0759567950B
:100570000A94E2F76170F70181917F010E94FE0108
:100580002196C430D10579F7C601DF91CF911F9133
:100590000F91FF90EF90DF90CF900C948C02CF9250
:1005A000DF92EF92FF920F931F93CF93DF93EC01B3
:1005B000F62E642F8C810E94FE018D818F3F19F0F1
:1005C00060E00E94FE010F2D10E08F8584FF25C0A2
:1005D0006E0187E0C80ED11CF12CE12CB8010E2C65
:1005E00002C0759567950A94E2F76170F6018191F2
:1005F0006F010E94FE01FFEFEF1AFF0A88E0E81684
:10060000F10461F7CE01DF91CF911F910F91FF901F
:10061000EF90DF90CF900C948C02B80184E0759538
:1006200067958A95E1F7CE010E94A2026F2DCE0157
:10063000DF91CF911F910F91FF90EF90DF90CF90BE
:100640000C94A20240E0682F81E392E00C94CF0268
:10065000CF93DF93813029F090914002986090937E
:100660004002809344021092450280E48093460247
:1006700080E18093470280E58093480261E08091A9
:1006800035020E944A02809136028F3F19F061E0E4
:100690000E944A0261E0809137020E944A02C1E34F
:1006A000D2E09E01215332408091400284FD0BC074
:1006B00084E090E021962817390744F461E08E81A8
:1006C0000E944A02EECF88E090E0F4CF8BE39DE0F9
:1006D0000197F1F760E0809135020E94FE0160E031
:1006E000809137020E94FE01809136028F3F19F0FF
:1006F00060E00E94FE018091400284FD39C063E009
:1007000081E392E00E94A202CBE4D6E4CE010197FD
:10071000F1F763E081E392E00E94A2022197F1F7F2
:1007200063E081E392E00E94A20283E592E00197F8
:10073000F1F762E081E392E00E94A2028091400220
:1007400080620E94220384E0809341028CE00E9438
:10075000220381E00E9422038BE39FE10197F1F7DE
:1007600082E08093420286E0DF91CF910C942203D5
:1007700080620E9422038BE496E40197F1F7809156
:10078000400280620E94220383E592E00197F1F724
:100790008091400280620E942203D0CF9091440257
:1007A000891710F08FEF890FE82FF0E0EF5CFD4F15
:1007B000848980680C94220341E00E94CF0281E08A
:1007C00090E00895CF92DF92EF92FF920F931F93E4
:1007D000CF93DF93CDB7DEB7A1970FB6F894DEBF06
:1007E0000FBECDBF6B017C01F7FE3CC041E06DE266
:1007F00081E392E00E94CF0222273327A9012C191E
:100800003D094E095F0919A28E010F5D1F4F9AE045
:10081000C92ED12CE12CF12CCA01B901A7019601F6
:100820000E948408605DF80162938F0121153105F3
:100830004105510589F790E080E0309719F0CF012C
:100840000E947F020196A1960FB6F894DEBF0FBEFC
:10085000CDBFDF91CF911F910F91FF90EF90DF906F
:10086000CF900895AC019B0119A28E010F5D1F4F1F
:100870008AE0C82ED12CE12CF12CCA01B901A701C4
:1008800096010E948408605DF80162938F01211532
:1008900031054105510589F790E080E0309799F2E4
:1008A000CF010E947F02CFCF0F931F9360E08AE0B9
:1008B0000E94FE0183E090E00197F1F761E08AE099
:1008C0000E94FE0183E290E00197F1F760E08AE088
:1008D0000E94FE01E3EAF0E06491EFE8F0E0E491C9
:1008E000F0E0EE0FFF1FE859FF4F8591949100E46F
:1008F00012E42FE030E0462F0E94FE0561157105DD
:100900008105910529F06F5F7F4F8F4F9F4F9F703B
:100910000E94ED0826E933E44BE05DE30E945109B3
:1009200020E030E040E05FE30E9451090E94B508FA
:1009300070936B0160936A01CB011F910F91089531
:100940001F920F920FB60F9211242F933F934F9344
:100950005F936F937F938F939F93AF93BF93EF9327
:10096000FF938CE691E00E946F01FF91EF91BF91A0
:10097000AF919F918F917F916F915F914F913F9137
:100980002F910F900FBE0F901F9018951F920F92EE
:100990000FB60F9211242F938F939F93EF93FF9392
:1009A000E0917C01F0917D018081E0918201F091E4
:1009B000830182FD1BC09081809185018F5F8F73C1
:1009C00020918601821741F0E0918501F0E0E45921
:1009D000FE4F958F80938501FF91EF919F918F91AD
:1009E0002F910F900FBE0F901F9018958081F4CF1C
:1009F0001F920F920FB60F9211242F933F938F9354
:100A00009F93AF93BF938091660190916701A091EE
:100A10006801B09169013091650123E0230F2D3702
:100A200058F50196A11DB11D2093650180936601C3
:100A300090936701A0936801B0936901809161016F
:100A400090916201A0916301B09164010196A11D92
:100A5000B11D8093610190936201A0936301B093F3
:100A60006401BF91AF919F918F913F912F910F9012
:100A70000FBE0F901F90189526E8230F0296A11D18
:100A8000B11DD2CF1F920F920FB60F9211242F9348
:100A90003F934F935F936F937F938F939F93AF9306
:100AA000BF93CF93DF93EF93FF9380916001C09149
:100AB0002D02D0E087FF24C01092850010928400A0
:100AC000809160018F5F8093600180916001082EAA
:100AD000000C990B8C179D0724F4809160018C30D9
:100AE000C4F18091840090918500049680349C49E3
:100AF00008F47AC08091840090918500049676C0B5
:100B000080916001082E000C990B8C179D07C4F68C
:100B1000E09160018E2FEE0F990BFC01EE0FFF1F8D
:100B2000E80FF91FE75FFD4F808186FFC9CFE09195
:100B300060018E2FEE0F990BFC01EE0FFF1FE80FE7
:100B4000F91FE75FFD4F808160E08F730E94FE0117
:100B5000B7CF2091840030918500E09160018E2F05
:100B6000EE0F990BFC01EE0FFF1FE80FF91FE75F77
:100B7000FD4F81819281820F931F90938900809312
:100B80008800E09160018E2FEE0F990BFC01EE0FB3
:100B9000FF1FE80FF91FE75FFD4F808186FF11C03F
:100BA000E09160018E2FEE0F990BFC01EE0FFF1FFD
:100BB000E80FF91FE75FFD4F808161E08F730E94AE
:100BC000FE01FF91EF91DF91CF91BF91AF919F9186
:100BD0008F917F916F915F914F913F912F910F90E6
:100BE0000FBE0F901F90189580E49CE990938900A8
:100BF000809388008FEF80936001E3CFCF92DF92E4
:100C0000EF92FF920F931F93E82FF92F05C0015029
:100C100011092109310961F1908196239417B9F3E3
:100C200005C0015011092109310911F19081962364
:100C30009413F7CFC12CD12CE12CF12C0AC08FEFEB
:100C4000C81AD80AE80AF80A0C151D052E053F0532
:100C500079F080818623841791F36C2D7D2D8E2D64
:100C60009F2D1F910F91FF90EF90DF90CF900895EF
:100C700060E070E080E090E01F910F91FF90EF90B6
:100C8000DF90CF900895CF9310926F0110926E0174
:100C900088EE93E0A0E0B0E0809370019093710142
:100CA000A0937201B093730184E091E090936D0181
:100CB00080936C0185EC90E09093790180937801AA
:100CC00084EC90E090937B0180937A0180EC90E03B
:100CD00090937D0180937C0181EC90E090937F0163
:100CE00080937E0182EC90E090938101809380015B
:100CF00086EC90E0909383018093820110928501AD
:100D0000109286011092870110928801109234028D
:100D10001092330286E191E0909332028093310287
:100D200082E080933502CFEFC093360283E0809358
:100D3000370284E08093380285E08093390286E0B0
:100D400080933A0287E080933B0210923C0210921B
:100D50003D0210923E0210923F021092400281E04A
:100D60000E94280380912D028C30A0F491E0980F0E
:100D700090932D0280932E0290E0FC01EE0FFF1F56
:100D8000E80FF91FE75FFD4F88EB9BE092838183BB
:100D9000CF910895C0932E02FBCF789484B58260E2
:100DA00084BD84B5816084BD85B5826085BD85B50F
:100DB000816085BD80916E00816080936E0010928D
:100DC0008100809181008260809381008091810008
:100DD0008160809381008091800081608093800099
:100DE0008091B10084608093B1008091B0008160F7
:100DF0008093B00080917A00846080937A00809123
:100E00007A00826080937A0080917A00816080937A
:100E10007A0080917A00806880937A001092C100F5
:100E200061E08AE00E944A0260E089E00E944A0292
:100E3000E0917C01F0917D0182E08083E091780176
:100E4000F09179011082E0917A01F0917B018FECB1
:100E5000808310928401E0918001F091810186E00D
:100E60008083E0917E01F0917F01808180618083A9
:100E7000E0917E01F0917F01808188608083E09124
:100E80007E01F0917F01808180688083E0917E0106
:100E9000F0917F0180818F7D808380912E028C3044
:100EA00008F051C061E088E00E944A0280912E0261
:100EB000282F30E0F901EE0FFF1FE20FF31FE75F6D
:100EC000FD4F9081907C9860908310922F02109239
:100ED00030022CE0622F0E94E609829FB0011124AB
:100EE00030E020E0AB01420F531FFA01EE0FFF1F6D
:100EF000E40FF51FE75FFD4F908196FD16C02F5F51
:100F00003F4F2C30310571F781110FC010928000D6
:100F100082E0809381001092850010928400B19A43
:100F200080916F00826080936F00E0912E028E2F7F
:100F300090E0FC01EE0FFF1FE80FF91FE75FFD4F88
:100F400080818064808384E00E94280380E00E9486
:100F5000CE0381E00E9422038BE39FE10197F1F72A
:100F6000C0E0D0E09FE0C92ED12CE12CF12CC601CD
:100F70000E948C000E94540490936B0180936A013C
:100F800080E00E94CE038EE191E00E947F0281E02A
:100F90000E94CE03C701B6010E94E2038EE291E0F7
:100FA0000E947F0260916A0170916B01072E000C14
:100FB000880B990B0E94E20380916A0190916B016A
:100FC00005970CF063C083E00E94CE0387E391E0B5
:100FD0000E947F028FEFC81AD80AE80AF80A86EA48
:100FE000C816D104E104F10411F685EAC82ED12C0B
:100FF000E12CF12CC6010E948C000E9454049093B5
:101000006B0180936A0180E00E94CE0380E591E04D
:101010000E947F0281E00E94CE03C701B6010E94B8
:10102000E2038EE291E00E947F0260916A0170917A
:101030006B01072E000C880B990B0E94E20383E0E2
:101040000E94CE0380916A0190916B01059724F56F
:1010500083E00E94CE0387E391E00E947F0281E05B
:10106000C81AD108E108F1088FE0C816D104E104DC
:10107000F10409F0BFCF209709F474CF0E945B01FF
:10108000882309F46FCF0E9400006CCF83E00E9498
:10109000CE0381E491E09CCF83E00E94CE0381E403
:1010A00091E0DBCF052E97FB1EF400940E946908A7
:1010B00057FD07D00E94840807FC03D04EF40C941F
:1010C000690850954095309521953F4F4F4F5F4FA0
:1010D000089590958095709561957F4F8F4F9F4FA4
:1010E00008950E94A608A59F900DB49F900DA49FFF
:1010F000800D911D11240895B7FF0C9471080E9472
:101100007108821B930B0895A1E21A2EAA1BBB1B28
:10111000FD010DC0AA1FBB1FEE1FFF1FA217B307C3
:10112000E407F50720F0A21BB30BE40BF50B661FD9
:10113000771F881F991F1A9469F76095709580959D
:1011400090959B01AC01BD01CF010895A29FB00114
:10115000B39FC001A39F700D811D1124911DB29FEB
:10116000700D811D1124911D08950E94BC08689482
:10117000B1110C944B0908950E94300988F09F57D3
:1011800098F0B92F9927B751B0F0E1F0660F771FAB
:10119000881F991F1AF0BA95C9F714C0B13091F0A1
:1011A0000E944A09B1E008950C944A09672F782FEC
:1011B0008827B85F39F0B93FCCF386957795679566
:1011C000B395D9F73EF490958095709561957F4FD2
:1011D0008F4F9F4F0895E89409C097FB3EF4909578
:1011E0008095709561957F4F8F4F9F4F9923A9F000
:1011F000F92F96E9BB279395F6958795779567958F
:10120000B795F111F8CFFAF4BB0F11F460FF1BC0D2
:101210006F5F7F4F8F4F9F4F16C0882311F096E965
:1012200011C0772321F09EE8872F762F05C0662313
:1012300071F096E8862F70E060E02AF09A95660FCC
:10124000771F881FDAF7880F9695879597F9089585
:1012500057FD9058440F551F59F05F3F71F0479567
:10126000880F97FB991F61F09F3F79F0879508954C
:10127000121613061406551FF2CF4695F1DF08C06B
:10128000161617061806991FF1CF86957105610588
:1012900008940895E894BB2766277727CB0197F930
:1012A00008950E9464090C94D5090E94C70938F07A
:1012B0000E94CE0920F0952311F00C94BE090C94E5
:1012C000C40911240C944B090E94280970F3959FBE
:1012D000C1F3950F50E0551F629FF001729FBB272D
:1012E000F00DB11D639FAA27F00DB11DAA1F649FC9
:1012F0006627B00DA11D661F829F2227B00DA11D7C
:10130000621F739FB00DA11D621F839FA00D611D01
:10131000221F749F3327A00D611D231F849F600D22
:10132000211D822F762F6A2F11249F5750409AF04B
:10133000F1F088234AF0EE0FFF1FBB1F661F771FD7
:10134000881F91505040A9F79E3F510580F00C94A2
:10135000BE090C944B095F3FE4F3983ED4F38695A5
:1013600077956795B795F795E7959F5FC1F7FE2B42
:10137000880F911D9695879597F9089597F99F671E
:1013800080E870E060E008959FEF80EC089500240D
:101390000A941616170618060906089500240A94DA
:1013A00012161306140605060895092E0394000C60
:1013B00011F4882352F0BB0F40F4BF2B11F460FFEF
:1013C00004C06F5F7F4F8F4F9F4F0895991B79E047
:1013D00004C0991F961708F0961B881F7A95C9F7C5
:1013E00080950895EE0FFF1F0590F491E02D09946C
:0413F000F894FFCF9F
:1013F400000000009101F1001E01DE014F012D01EA
:10140400410100000000DC03F1007C027B02616EFC
:10141400676C65207C64697374616E636500202069
:10142400207C20202020006E6F206F626A65637428
:10143400006F626A63742064657465637465640034
:10144400616E676C657C64697374616E63650000CA
:00000001FF
